{
  "_format": "hh3-artifact-1",
  "contractName": "StreamNFT",
  "sourceName": "contracts/StreamNFT.sol",
  "abi": [
    {
      "inputs": [
        {
          "internalType": "address",
          "name": "_coreContractAddress",
          "type": "address"
        }
      ],
      "stateMutability": "nonpayable",
      "type": "constructor"
    },
    {
      "inputs": [
        {
          "internalType": "address",
          "name": "sender",
          "type": "address"
        },
        {
          "internalType": "uint256",
          "name": "tokenId",
          "type": "uint256"
        },
        {
          "internalType": "address",
          "name": "owner",
          "type": "address"
        }
      ],
      "name": "ERC721IncorrectOwner",
      "type": "error"
    },
    {
      "inputs": [
        {
          "internalType": "address",
          "name": "operator",
          "type": "address"
        },
        {
          "internalType": "uint256",
          "name": "tokenId",
          "type": "uint256"
        }
      ],
      "name": "ERC721InsufficientApproval",
      "type": "error"
    },
    {
      "inputs": [
        {
          "internalType": "address",
          "name": "approver",
          "type": "address"
        }
      ],
      "name": "ERC721InvalidApprover",
      "type": "error"
    },
    {
      "inputs": [
        {
          "internalType": "address",
          "name": "operator",
          "type": "address"
        }
      ],
      "name": "ERC721InvalidOperator",
      "type": "error"
    },
    {
      "inputs": [
        {
          "internalType": "address",
          "name": "owner",
          "type": "address"
        }
      ],
      "name": "ERC721InvalidOwner",
      "type": "error"
    },
    {
      "inputs": [
        {
          "internalType": "address",
          "name": "receiver",
          "type": "address"
        }
      ],
      "name": "ERC721InvalidReceiver",
      "type": "error"
    },
    {
      "inputs": [
        {
          "internalType": "address",
          "name": "sender",
          "type": "address"
        }
      ],
      "name": "ERC721InvalidSender",
      "type": "error"
    },
    {
      "inputs": [
        {
          "internalType": "uint256",
          "name": "tokenId",
          "type": "uint256"
        }
      ],
      "name": "ERC721NonexistentToken",
      "type": "error"
    },
    {
      "inputs": [
        {
          "internalType": "address",
          "name": "owner",
          "type": "address"
        }
      ],
      "name": "OwnableInvalidOwner",
      "type": "error"
    },
    {
      "inputs": [
        {
          "internalType": "address",
          "name": "account",
          "type": "address"
        }
      ],
      "name": "OwnableUnauthorizedAccount",
      "type": "error"
    },
    {
      "inputs": [
        {
          "internalType": "uint256",
          "name": "value",
          "type": "uint256"
        },
        {
          "internalType": "uint256",
          "name": "length",
          "type": "uint256"
        }
      ],
      "name": "StringsInsufficientHexLength",
      "type": "error"
    },
    {
      "anonymous": false,
      "inputs": [
        {
          "indexed": true,
          "internalType": "address",
          "name": "owner",
          "type": "address"
        },
        {
          "indexed": true,
          "internalType": "address",
          "name": "approved",
          "type": "address"
        },
        {
          "indexed": true,
          "internalType": "uint256",
          "name": "tokenId",
          "type": "uint256"
        }
      ],
      "name": "Approval",
      "type": "event"
    },
    {
      "anonymous": false,
      "inputs": [
        {
          "indexed": true,
          "internalType": "address",
          "name": "owner",
          "type": "address"
        },
        {
          "indexed": true,
          "internalType": "address",
          "name": "operator",
          "type": "address"
        },
        {
          "indexed": false,
          "internalType": "bool",
          "name": "approved",
          "type": "bool"
        }
      ],
      "name": "ApprovalForAll",
      "type": "event"
    },
    {
      "anonymous": false,
      "inputs": [
        {
          "indexed": true,
          "internalType": "address",
          "name": "previousOwner",
          "type": "address"
        },
        {
          "indexed": true,
          "internalType": "address",
          "name": "newOwner",
          "type": "address"
        }
      ],
      "name": "OwnershipTransferred",
      "type": "event"
    },
    {
      "anonymous": false,
      "inputs": [
        {
          "indexed": true,
          "internalType": "address",
          "name": "from",
          "type": "address"
        },
        {
          "indexed": true,
          "internalType": "address",
          "name": "to",
          "type": "address"
        },
        {
          "indexed": true,
          "internalType": "uint256",
          "name": "tokenId",
          "type": "uint256"
        }
      ],
      "name": "Transfer",
      "type": "event"
    },
    {
      "inputs": [
        {
          "internalType": "address",
          "name": "to",
          "type": "address"
        },
        {
          "internalType": "uint256",
          "name": "tokenId",
          "type": "uint256"
        }
      ],
      "name": "approve",
      "outputs": [],
      "stateMutability": "nonpayable",
      "type": "function"
    },
    {
      "inputs": [
        {
          "internalType": "address",
          "name": "owner",
          "type": "address"
        }
      ],
      "name": "balanceOf",
      "outputs": [
        {
          "internalType": "uint256",
          "name": "",
          "type": "uint256"
        }
      ],
      "stateMutability": "view",
      "type": "function"
    },
    {
      "inputs": [
        {
          "internalType": "uint256",
          "name": "_streamId",
          "type": "uint256"
        }
      ],
      "name": "burn",
      "outputs": [],
      "stateMutability": "nonpayable",
      "type": "function"
    },
    {
      "inputs": [],
      "name": "coreContract",
      "outputs": [
        {
          "internalType": "contract ChronoFlowCore",
          "name": "",
          "type": "address"
        }
      ],
      "stateMutability": "view",
      "type": "function"
    },
    {
      "inputs": [
        {
          "internalType": "uint256",
          "name": "tokenId",
          "type": "uint256"
        }
      ],
      "name": "getApproved",
      "outputs": [
        {
          "internalType": "address",
          "name": "",
          "type": "address"
        }
      ],
      "stateMutability": "view",
      "type": "function"
    },
    {
      "inputs": [
        {
          "internalType": "address",
          "name": "owner",
          "type": "address"
        },
        {
          "internalType": "address",
          "name": "operator",
          "type": "address"
        }
      ],
      "name": "isApprovedForAll",
      "outputs": [
        {
          "internalType": "bool",
          "name": "",
          "type": "bool"
        }
      ],
      "stateMutability": "view",
      "type": "function"
    },
    {
      "inputs": [
        {
          "internalType": "address",
          "name": "_recipient",
          "type": "address"
        },
        {
          "internalType": "uint256",
          "name": "_streamId",
          "type": "uint256"
        }
      ],
      "name": "mint",
      "outputs": [],
      "stateMutability": "nonpayable",
      "type": "function"
    },
    {
      "inputs": [],
      "name": "name",
      "outputs": [
        {
          "internalType": "string",
          "name": "",
          "type": "string"
        }
      ],
      "stateMutability": "view",
      "type": "function"
    },
    {
      "inputs": [],
      "name": "owner",
      "outputs": [
        {
          "internalType": "address",
          "name": "",
          "type": "address"
        }
      ],
      "stateMutability": "view",
      "type": "function"
    },
    {
      "inputs": [
        {
          "internalType": "uint256",
          "name": "tokenId",
          "type": "uint256"
        }
      ],
      "name": "ownerOf",
      "outputs": [
        {
          "internalType": "address",
          "name": "",
          "type": "address"
        }
      ],
      "stateMutability": "view",
      "type": "function"
    },
    {
      "inputs": [],
      "name": "renounceOwnership",
      "outputs": [],
      "stateMutability": "nonpayable",
      "type": "function"
    },
    {
      "inputs": [
        {
          "internalType": "address",
          "name": "from",
          "type": "address"
        },
        {
          "internalType": "address",
          "name": "to",
          "type": "address"
        },
        {
          "internalType": "uint256",
          "name": "tokenId",
          "type": "uint256"
        }
      ],
      "name": "safeTransferFrom",
      "outputs": [],
      "stateMutability": "nonpayable",
      "type": "function"
    },
    {
      "inputs": [
        {
          "internalType": "address",
          "name": "from",
          "type": "address"
        },
        {
          "internalType": "address",
          "name": "to",
          "type": "address"
        },
        {
          "internalType": "uint256",
          "name": "tokenId",
          "type": "uint256"
        },
        {
          "internalType": "bytes",
          "name": "data",
          "type": "bytes"
        }
      ],
      "name": "safeTransferFrom",
      "outputs": [],
      "stateMutability": "nonpayable",
      "type": "function"
    },
    {
      "inputs": [
        {
          "internalType": "address",
          "name": "operator",
          "type": "address"
        },
        {
          "internalType": "bool",
          "name": "approved",
          "type": "bool"
        }
      ],
      "name": "setApprovalForAll",
      "outputs": [],
      "stateMutability": "nonpayable",
      "type": "function"
    },
    {
      "inputs": [
        {
          "internalType": "address",
          "name": "_coreContractAddress",
          "type": "address"
        }
      ],
      "name": "setCoreContract",
      "outputs": [],
      "stateMutability": "nonpayable",
      "type": "function"
    },
    {
      "inputs": [
        {
          "internalType": "bytes4",
          "name": "interfaceId",
          "type": "bytes4"
        }
      ],
      "name": "supportsInterface",
      "outputs": [
        {
          "internalType": "bool",
          "name": "",
          "type": "bool"
        }
      ],
      "stateMutability": "view",
      "type": "function"
    },
    {
      "inputs": [],
      "name": "symbol",
      "outputs": [
        {
          "internalType": "string",
          "name": "",
          "type": "string"
        }
      ],
      "stateMutability": "view",
      "type": "function"
    },
    {
      "inputs": [
        {
          "internalType": "uint256",
          "name": "_streamId",
          "type": "uint256"
        }
      ],
      "name": "tokenURI",
      "outputs": [
        {
          "internalType": "string",
          "name": "",
          "type": "string"
        }
      ],
      "stateMutability": "view",
      "type": "function"
    },
    {
      "inputs": [
        {
          "internalType": "address",
          "name": "from",
          "type": "address"
        },
        {
          "internalType": "address",
          "name": "to",
          "type": "address"
        },
        {
          "internalType": "uint256",
          "name": "tokenId",
          "type": "uint256"
        }
      ],
      "name": "transferFrom",
      "outputs": [],
      "stateMutability": "nonpayable",
      "type": "function"
    },
    {
      "inputs": [
        {
          "internalType": "address",
          "name": "newOwner",
          "type": "address"
        }
      ],
      "name": "transferOwnership",
      "outputs": [],
      "stateMutability": "nonpayable",
      "type": "function"
    }
  ],
  "bytecode": "0x608060405234801561000f575f5ffd5b50604051613c4a380380613c4a833981810160405281019061003191906102a6565b336040518060400160405280601581526020017f4368726f6e6f466c6f772053747265616d204e465400000000000000000000008152506040518060400160405280600381526020017f4346530000000000000000000000000000000000000000000000000000000000815250815f90816100ac919061050e565b5080600190816100bc919061050e565b5050505f73ffffffffffffffffffffffffffffffffffffffff168173ffffffffffffffffffffffffffffffffffffffff160361012f575f6040517f1e4fbdf700000000000000000000000000000000000000000000000000000000815260040161012691906105ec565b60405180910390fd5b61013e8161018560201b60201c565b508060075f6101000a81548173ffffffffffffffffffffffffffffffffffffffff021916908373ffffffffffffffffffffffffffffffffffffffff16021790555050610605565b5f60065f9054906101000a900473ffffffffffffffffffffffffffffffffffffffff1690508160065f6101000a81548173ffffffffffffffffffffffffffffffffffffffff021916908373ffffffffffffffffffffffffffffffffffffffff1602179055508173ffffffffffffffffffffffffffffffffffffffff168173ffffffffffffffffffffffffffffffffffffffff167f8be0079c531659141344cd1fd0a4f28419497f9722a3daafe3b4186f6b6457e060405160405180910390a35050565b5f5ffd5b5f73ffffffffffffffffffffffffffffffffffffffff82169050919050565b5f6102758261024c565b9050919050565b6102858161026b565b811461028f575f5ffd5b50565b5f815190506102a08161027c565b92915050565b5f602082840312156102bb576102ba610248565b5b5f6102c884828501610292565b91505092915050565b5f81519050919050565b7f4e487b71000000000000000000000000000000000000000000000000000000005f52604160045260245ffd5b7f4e487b71000000000000000000000000000000000000000000000000000000005f52602260045260245ffd5b5f600282049050600182168061034c57607f821691505b60208210810361035f5761035e610308565b5b50919050565b5f819050815f5260205f209050919050565b5f6020601f8301049050919050565b5f82821b905092915050565b5f600883026103c17fffffffffffffffffffffffffffffffffffffffffffffffffffffffffffffffff82610386565b6103cb8683610386565b95508019841693508086168417925050509392505050565b5f819050919050565b5f819050919050565b5f61040f61040a610405846103e3565b6103ec565b6103e3565b9050919050565b5f819050919050565b610428836103f5565b61043c61043482610416565b848454610392565b825550505050565b5f5f905090565b610453610444565b61045e81848461041f565b505050565b5b81811015610481576104765f8261044b565b600181019050610464565b5050565b601f8211156104c65761049781610365565b6104a084610377565b810160208510156104af578190505b6104c36104bb85610377565b830182610463565b50505b505050565b5f82821c905092915050565b5f6104e65f19846008026104cb565b1980831691505092915050565b5f6104fe83836104d7565b9150826002028217905092915050565b610517826102d1565b67ffffffffffffffff8111156105305761052f6102db565b5b61053a8254610335565b610545828285610485565b5f60209050601f831160018114610576575f8415610564578287015190505b61056e85826104f3565b8655506105d5565b601f19841661058486610365565b5f5b828110156105ab57848901518255600182019150602085019450602081019050610586565b868310156105c857848901516105c4601f8916826104d7565b8355505b6001600288020188555050505b505050505050565b6105e68161026b565b82525050565b5f6020820190506105ff5f8301846105dd565b92915050565b613638806106125f395ff3fe608060405234801561000f575f5ffd5b506004361061012a575f3560e01c8063715018a6116100ab578063c62666931161006f578063c626669314610316578063c87b56dd14610332578063e80db5db14610362578063e985e9c514610380578063f2fde38b146103b05761012a565b8063715018a6146102985780638da5cb5b146102a257806395d89b41146102c0578063a22cb465146102de578063b88d4fde146102fa5761012a565b806340c10f19116100f257806340c10f19146101e457806342842e0e1461020057806342966c681461021c5780636352211e1461023857806370a08231146102685761012a565b806301ffc9a71461012e57806306fdde031461015e578063081812fc1461017c578063095ea7b3146101ac57806323b872dd146101c8575b5f5ffd5b61014860048036038101906101439190612139565b6103cc565b604051610155919061217e565b60405180910390f35b6101666104ad565b6040516101739190612207565b60405180910390f35b6101966004803603810190610191919061225a565b61053c565b6040516101a391906122c4565b60405180910390f35b6101c660048036038101906101c19190612307565b610557565b005b6101e260048036038101906101dd9190612345565b61056d565b005b6101fe60048036038101906101f99190612307565b61066c565b005b61021a60048036038101906102159190612345565b610709565b005b6102366004803603810190610231919061225a565b610728565b005b610252600480360381019061024d919061225a565b6107c3565b60405161025f91906122c4565b60405180910390f35b610282600480360381019061027d9190612395565b6107d4565b60405161028f91906123cf565b60405180910390f35b6102a061088a565b005b6102aa61089d565b6040516102b791906122c4565b60405180910390f35b6102c86108c5565b6040516102d59190612207565b60405180910390f35b6102f860048036038101906102f39190612412565b610955565b005b610314600480360381019061030f919061257c565b61096b565b005b610330600480360381019061032b9190612395565b610990565b005b61034c6004803603810190610347919061225a565b610a49565b6040516103599190612207565b60405180910390f35b61036a610d06565b6040516103779190612657565b60405180910390f35b61039a60048036038101906103959190612670565b610d2b565b6040516103a7919061217e565b60405180910390f35b6103ca60048036038101906103c59190612395565b610db9565b005b5f7f80ac58cd000000000000000000000000000000000000000000000000000000007bffffffffffffffffffffffffffffffffffffffffffffffffffffffff1916827bffffffffffffffffffffffffffffffffffffffffffffffffffffffff1916148061049657507f5b5e139f000000000000000000000000000000000000000000000000000000007bffffffffffffffffffffffffffffffffffffffffffffffffffffffff1916827bffffffffffffffffffffffffffffffffffffffffffffffffffffffff1916145b806104a657506104a582610e3d565b5b9050919050565b60605f80546104bb906126db565b80601f01602080910402602001604051908101604052809291908181526020018280546104e7906126db565b80156105325780601f1061050957610100808354040283529160200191610532565b820191905f5260205f20905b81548152906001019060200180831161051557829003601f168201915b5050505050905090565b5f61054682610ea6565b5061055082610f2c565b9050919050565b6105698282610564610f65565b610f6c565b5050565b5f73ffffffffffffffffffffffffffffffffffffffff168273ffffffffffffffffffffffffffffffffffffffff16036105dd575f6040517f64a0ae920000000000000000000000000000000000000000000000000000000081526004016105d491906122c4565b60405180910390fd5b5f6105f083836105eb610f65565b610f7e565b90508373ffffffffffffffffffffffffffffffffffffffff168173ffffffffffffffffffffffffffffffffffffffff1614610666578382826040517f64283d7b00000000000000000000000000000000000000000000000000000000815260040161065d9392919061270b565b60405180910390fd5b50505050565b60075f9054906101000a900473ffffffffffffffffffffffffffffffffffffffff1673ffffffffffffffffffffffffffffffffffffffff163373ffffffffffffffffffffffffffffffffffffffff16146106fb576040517f08c379a00000000000000000000000000000000000000000000000000000000081526004016106f2906127b0565b60405180910390fd5b6107058282611189565b5050565b61072383838360405180602001604052805f81525061096b565b505050565b60075f9054906101000a900473ffffffffffffffffffffffffffffffffffffffff1673ffffffffffffffffffffffffffffffffffffffff163373ffffffffffffffffffffffffffffffffffffffff16146107b7576040517f08c379a00000000000000000000000000000000000000000000000000000000081526004016107ae906127b0565b60405180910390fd5b6107c0816111a6565b50565b5f6107cd82610ea6565b9050919050565b5f5f73ffffffffffffffffffffffffffffffffffffffff168273ffffffffffffffffffffffffffffffffffffffff1603610845575f6040517f89c62b6400000000000000000000000000000000000000000000000000000000815260040161083c91906122c4565b60405180910390fd5b60035f8373ffffffffffffffffffffffffffffffffffffffff1673ffffffffffffffffffffffffffffffffffffffff1681526020019081526020015f20549050919050565b610892611228565b61089b5f6112af565b565b5f60065f9054906101000a900473ffffffffffffffffffffffffffffffffffffffff16905090565b6060600180546108d4906126db565b80601f0160208091040260200160405190810160405280929190818152602001828054610900906126db565b801561094b5780601f106109225761010080835404028352916020019161094b565b820191905f5260205f20905b81548152906001019060200180831161092e57829003601f168201915b5050505050905090565b610967610960610f65565b8383611372565b5050565b61097684848461056d565b61098a610981610f65565b858585856114db565b50505050565b610998611228565b5f73ffffffffffffffffffffffffffffffffffffffff168173ffffffffffffffffffffffffffffffffffffffff1603610a06576040517f08c379a00000000000000000000000000000000000000000000000000000000081526004016109fd9061283e565b60405180910390fd5b8060075f6101000a81548173ffffffffffffffffffffffffffffffffffffffff021916908373ffffffffffffffffffffffffffffffffffffffff16021790555050565b60605f5f5f5f5f5f5f5f60075f9054906101000a900473ffffffffffffffffffffffffffffffffffffffff1673ffffffffffffffffffffffffffffffffffffffff166364d60d918b6040518263ffffffff1660e01b8152600401610aad91906123cf565b61010060405180830381865afa158015610ac9573d5f5f3e3d5ffd5b505050506040513d601f19601f82011682018060405250810190610aed91906128bf565b975097509750975097509750975097505f60075f9054906101000a900473ffffffffffffffffffffffffffffffffffffffff1673ffffffffffffffffffffffffffffffffffffffff1663f2dedd228c6040518263ffffffff1660e01b8152600401610b5891906123cf565b602060405180830381865afa158015610b73573d5f5f3e3d5ffd5b505050506040513d601f19601f82011682018060405250810190610b979190612970565b90505f610ba38c611687565b604051602001610bb39190612a1f565b60405160208183030381529060405290505f6040518060800160405280605c81526020016135a7605c913990505f610c028c73ffffffffffffffffffffffffffffffffffffffff166014611751565b610c238c73ffffffffffffffffffffffffffffffffffffffff166014611751565b610c448b73ffffffffffffffffffffffffffffffffffffffff166014611751565b610c4d8d611687565b610c568a611687565b610c5f8a611687565b610c688a611687565b610c718f611687565b610c7a8f611687565b604051602001610c9299989796959493929190612f58565b60405160208183030381529060405290505f838383604051602001610cb99392919061320e565b6040516020818303038152906040529050610cd38161198f565b604051602001610ce391906132ca565b6040516020818303038152906040529d5050505050505050505050505050919050565b60075f9054906101000a900473ffffffffffffffffffffffffffffffffffffffff1681565b5f60055f8473ffffffffffffffffffffffffffffffffffffffff1673ffffffffffffffffffffffffffffffffffffffff1681526020019081526020015f205f8373ffffffffffffffffffffffffffffffffffffffff1673ffffffffffffffffffffffffffffffffffffffff1681526020019081526020015f205f9054906101000a900460ff16905092915050565b610dc1611228565b5f73ffffffffffffffffffffffffffffffffffffffff168173ffffffffffffffffffffffffffffffffffffffff1603610e31575f6040517f1e4fbdf7000000000000000000000000000000000000000000000000000000008152600401610e2891906122c4565b60405180910390fd5b610e3a816112af565b50565b5f7f01ffc9a7000000000000000000000000000000000000000000000000000000007bffffffffffffffffffffffffffffffffffffffffffffffffffffffff1916827bffffffffffffffffffffffffffffffffffffffffffffffffffffffff1916149050919050565b5f5f610eb183611af1565b90505f73ffffffffffffffffffffffffffffffffffffffff168173ffffffffffffffffffffffffffffffffffffffff1603610f2357826040517f7e273289000000000000000000000000000000000000000000000000000000008152600401610f1a91906123cf565b60405180910390fd5b80915050919050565b5f60045f8381526020019081526020015f205f9054906101000a900473ffffffffffffffffffffffffffffffffffffffff169050919050565b5f33905090565b610f798383836001611b2a565b505050565b5f5f610f8984611af1565b90505f73ffffffffffffffffffffffffffffffffffffffff168373ffffffffffffffffffffffffffffffffffffffff1614610fca57610fc9818486611ce9565b5b5f73ffffffffffffffffffffffffffffffffffffffff168173ffffffffffffffffffffffffffffffffffffffff1614611055576110095f855f5f611b2a565b600160035f8373ffffffffffffffffffffffffffffffffffffffff1673ffffffffffffffffffffffffffffffffffffffff1681526020019081526020015f205f82825403925050819055505b5f73ffffffffffffffffffffffffffffffffffffffff168573ffffffffffffffffffffffffffffffffffffffff16146110d457600160035f8773ffffffffffffffffffffffffffffffffffffffff1673ffffffffffffffffffffffffffffffffffffffff1681526020019081526020015f205f82825401925050819055505b8460025f8681526020019081526020015f205f6101000a81548173ffffffffffffffffffffffffffffffffffffffff021916908373ffffffffffffffffffffffffffffffffffffffff160217905550838573ffffffffffffffffffffffffffffffffffffffff168273ffffffffffffffffffffffffffffffffffffffff167fddf252ad1be2c89b69c2b068fc378daa952ba7f163c4a11628f55a4df523b3ef60405160405180910390a4809150509392505050565b6111a2828260405180602001604052805f815250611dac565b5050565b5f6111b25f835f610f7e565b90505f73ffffffffffffffffffffffffffffffffffffffff168173ffffffffffffffffffffffffffffffffffffffff160361122457816040517f7e27328900000000000000000000000000000000000000000000000000000000815260040161121b91906123cf565b60405180910390fd5b5050565b611230610f65565b73ffffffffffffffffffffffffffffffffffffffff1661124e61089d565b73ffffffffffffffffffffffffffffffffffffffff16146112ad57611271610f65565b6040517f118cdaa70000000000000000000000000000000000000000000000000000000081526004016112a491906122c4565b60405180910390fd5b565b5f60065f9054906101000a900473ffffffffffffffffffffffffffffffffffffffff1690508160065f6101000a81548173ffffffffffffffffffffffffffffffffffffffff021916908373ffffffffffffffffffffffffffffffffffffffff1602179055508173ffffffffffffffffffffffffffffffffffffffff168173ffffffffffffffffffffffffffffffffffffffff167f8be0079c531659141344cd1fd0a4f28419497f9722a3daafe3b4186f6b6457e060405160405180910390a35050565b5f73ffffffffffffffffffffffffffffffffffffffff168273ffffffffffffffffffffffffffffffffffffffff16036113e257816040517f5b08ba180000000000000000000000000000000000000000000000000000000081526004016113d991906122c4565b60405180910390fd5b8060055f8573ffffffffffffffffffffffffffffffffffffffff1673ffffffffffffffffffffffffffffffffffffffff1681526020019081526020015f205f8473ffffffffffffffffffffffffffffffffffffffff1673ffffffffffffffffffffffffffffffffffffffff1681526020019081526020015f205f6101000a81548160ff0219169083151502179055508173ffffffffffffffffffffffffffffffffffffffff168373ffffffffffffffffffffffffffffffffffffffff167f17307eab39ab6107e8899845ad3d59bd9653f200f220920489ca2b5937696c31836040516114ce919061217e565b60405180910390a3505050565b5f8373ffffffffffffffffffffffffffffffffffffffff163b1115611680578273ffffffffffffffffffffffffffffffffffffffff1663150b7a02868685856040518563ffffffff1660e01b8152600401611539949392919061333d565b6020604051808303815f875af192505050801561157457506040513d601f19601f82011682018060405250810190611571919061339b565b60015b6115f5573d805f81146115a2576040519150601f19603f3d011682016040523d82523d5f602084013e6115a7565b606091505b505f8151036115ed57836040517f64a0ae920000000000000000000000000000000000000000000000000000000081526004016115e491906122c4565b60405180910390fd5b805160208201fd5b63150b7a0260e01b7bffffffffffffffffffffffffffffffffffffffffffffffffffffffff1916817bffffffffffffffffffffffffffffffffffffffffffffffffffffffff19161461167e57836040517f64a0ae9200000000000000000000000000000000000000000000000000000000815260040161167591906122c4565b60405180910390fd5b505b5050505050565b60605f600161169584611dcf565b0190505f8167ffffffffffffffff8111156116b3576116b2612458565b5b6040519080825280601f01601f1916602001820160405280156116e55781602001600182028036833780820191505090505b5090505f82602083010190505b600115611746578080600190039150507f3031323334353637383961626364656600000000000000000000000000000000600a86061a8153600a858161173b5761173a6133c6565b5b0494505f85036116f2575b819350505050919050565b60605f8390505f60028460026117679190613420565b6117719190613461565b67ffffffffffffffff81111561178a57611789612458565b5b6040519080825280601f01601f1916602001820160405280156117bc5781602001600182028036833780820191505090505b5090507f3000000000000000000000000000000000000000000000000000000000000000815f815181106117f3576117f2613494565b5b60200101907effffffffffffffffffffffffffffffffffffffffffffffffffffffffffffff191690815f1a9053507f78000000000000000000000000000000000000000000000000000000000000008160018151811061185657611855613494565b5b60200101907effffffffffffffffffffffffffffffffffffffffffffffffffffffffffffff191690815f1a9053505f60018560026118949190613420565b61189e9190613461565b90505b600181111561193d577f3031323334353637383961626364656600000000000000000000000000000000600f8416601081106118e0576118df613494565b5b1a60f81b8282815181106118f7576118f6613494565b5b60200101907effffffffffffffffffffffffffffffffffffffffffffffffffffffffffffff191690815f1a905350600483901c925080611936906134c1565b90506118a1565b505f82146119845784846040517fe22e27eb00000000000000000000000000000000000000000000000000000000815260040161197b9291906134e8565b60405180910390fd5b809250505092915050565b60605f8251036119af5760405180602001604052805f8152509050611aec565b5f6003600284516119c09190613461565b6119ca919061350f565b60046119d69190613420565b67ffffffffffffffff8111156119ef576119ee612458565b5b6040519080825280601f01601f191660200182016040528015611a215781602001600182028036833780820191505090505b5090505f604051806060016040528060408152602001613567604091399050600181016020830160208601865181015b80821015611aac578151603f8160121c168501518453600184019350603f81600c1c168501518453600184019350603f8160061c168501518453600184019350603f8116850151845360018401935050600382019150611a51565b5050600386510660018114611ac85760028114611adb57611ae3565b603d6002830353603d6001830353611ae3565b603d60018303535b50505081925050505b919050565b5f60025f8381526020019081526020015f205f9054906101000a900473ffffffffffffffffffffffffffffffffffffffff169050919050565b8080611b6257505f73ffffffffffffffffffffffffffffffffffffffff168273ffffffffffffffffffffffffffffffffffffffff1614155b15611c94575f611b7184610ea6565b90505f73ffffffffffffffffffffffffffffffffffffffff168373ffffffffffffffffffffffffffffffffffffffff1614158015611bdb57508273ffffffffffffffffffffffffffffffffffffffff168173ffffffffffffffffffffffffffffffffffffffff1614155b8015611bee5750611bec8184610d2b565b155b15611c3057826040517fa9fbf51f000000000000000000000000000000000000000000000000000000008152600401611c2791906122c4565b60405180910390fd5b8115611c9257838573ffffffffffffffffffffffffffffffffffffffff168273ffffffffffffffffffffffffffffffffffffffff167f8c5be1e5ebec7d5bd14f71427d1e84f3dd0314c0f7b2291e5b200ac8c7c3b92560405160405180910390a45b505b8360045f8581526020019081526020015f205f6101000a81548173ffffffffffffffffffffffffffffffffffffffff021916908373ffffffffffffffffffffffffffffffffffffffff16021790555050505050565b611cf4838383611f20565b611da7575f73ffffffffffffffffffffffffffffffffffffffff168373ffffffffffffffffffffffffffffffffffffffff1603611d6857806040517f7e273289000000000000000000000000000000000000000000000000000000008152600401611d5f91906123cf565b60405180910390fd5b81816040517f177e802f000000000000000000000000000000000000000000000000000000008152600401611d9e92919061353f565b60405180910390fd5b505050565b611db68383611fe0565b611dca611dc1610f65565b5f8585856114db565b505050565b5f5f5f90507a184f03e93ff9f4daa797ed6e38ed64bf6a1f0100000000000000008310611e2b577a184f03e93ff9f4daa797ed6e38ed64bf6a1f0100000000000000008381611e2157611e206133c6565b5b0492506040810190505b6d04ee2d6d415b85acef81000000008310611e68576d04ee2d6d415b85acef81000000008381611e5e57611e5d6133c6565b5b0492506020810190505b662386f26fc100008310611e9757662386f26fc100008381611e8d57611e8c6133c6565b5b0492506010810190505b6305f5e1008310611ec0576305f5e1008381611eb657611eb56133c6565b5b0492506008810190505b6127108310611ee5576127108381611edb57611eda6133c6565b5b0492506004810190505b60648310611f085760648381611efe57611efd6133c6565b5b0492506002810190505b600a8310611f17576001810190505b80915050919050565b5f5f73ffffffffffffffffffffffffffffffffffffffff168373ffffffffffffffffffffffffffffffffffffffff1614158015611fd757508273ffffffffffffffffffffffffffffffffffffffff168473ffffffffffffffffffffffffffffffffffffffff161480611f985750611f978484610d2b565b5b80611fd657508273ffffffffffffffffffffffffffffffffffffffff16611fbe83610f2c565b73ffffffffffffffffffffffffffffffffffffffff16145b5b90509392505050565b5f73ffffffffffffffffffffffffffffffffffffffff168273ffffffffffffffffffffffffffffffffffffffff1603612050575f6040517f64a0ae9200000000000000000000000000000000000000000000000000000000815260040161204791906122c4565b60405180910390fd5b5f61205c83835f610f7e565b90505f73ffffffffffffffffffffffffffffffffffffffff168173ffffffffffffffffffffffffffffffffffffffff16146120ce575f6040517f73c6ac6e0000000000000000000000000000000000000000000000000000000081526004016120c591906122c4565b60405180910390fd5b505050565b5f604051905090565b5f5ffd5b5f5ffd5b5f7fffffffff0000000000000000000000000000000000000000000000000000000082169050919050565b612118816120e4565b8114612122575f5ffd5b50565b5f813590506121338161210f565b92915050565b5f6020828403121561214e5761214d6120dc565b5b5f61215b84828501612125565b91505092915050565b5f8115159050919050565b61217881612164565b82525050565b5f6020820190506121915f83018461216f565b92915050565b5f81519050919050565b5f82825260208201905092915050565b8281835e5f83830152505050565b5f601f19601f8301169050919050565b5f6121d982612197565b6121e381856121a1565b93506121f38185602086016121b1565b6121fc816121bf565b840191505092915050565b5f6020820190508181035f83015261221f81846121cf565b905092915050565b5f819050919050565b61223981612227565b8114612243575f5ffd5b50565b5f8135905061225481612230565b92915050565b5f6020828403121561226f5761226e6120dc565b5b5f61227c84828501612246565b91505092915050565b5f73ffffffffffffffffffffffffffffffffffffffff82169050919050565b5f6122ae82612285565b9050919050565b6122be816122a4565b82525050565b5f6020820190506122d75f8301846122b5565b92915050565b6122e6816122a4565b81146122f0575f5ffd5b50565b5f81359050612301816122dd565b92915050565b5f5f6040838503121561231d5761231c6120dc565b5b5f61232a858286016122f3565b925050602061233b85828601612246565b9150509250929050565b5f5f5f6060848603121561235c5761235b6120dc565b5b5f612369868287016122f3565b935050602061237a868287016122f3565b925050604061238b86828701612246565b9150509250925092565b5f602082840312156123aa576123a96120dc565b5b5f6123b7848285016122f3565b91505092915050565b6123c981612227565b82525050565b5f6020820190506123e25f8301846123c0565b92915050565b6123f181612164565b81146123fb575f5ffd5b50565b5f8135905061240c816123e8565b92915050565b5f5f60408385031215612428576124276120dc565b5b5f612435858286016122f3565b9250506020612446858286016123fe565b9150509250929050565b5f5ffd5b5f5ffd5b7f4e487b71000000000000000000000000000000000000000000000000000000005f52604160045260245ffd5b61248e826121bf565b810181811067ffffffffffffffff821117156124ad576124ac612458565b5b80604052505050565b5f6124bf6120d3565b90506124cb8282612485565b919050565b5f67ffffffffffffffff8211156124ea576124e9612458565b5b6124f3826121bf565b9050602081019050919050565b828183375f83830152505050565b5f61252061251b846124d0565b6124b6565b90508281526020810184848401111561253c5761253b612454565b5b612547848285612500565b509392505050565b5f82601f83011261256357612562612450565b5b813561257384826020860161250e565b91505092915050565b5f5f5f5f60808587031215612594576125936120dc565b5b5f6125a1878288016122f3565b94505060206125b2878288016122f3565b93505060406125c387828801612246565b925050606085013567ffffffffffffffff8111156125e4576125e36120e0565b5b6125f08782880161254f565b91505092959194509250565b5f819050919050565b5f61261f61261a61261584612285565b6125fc565b612285565b9050919050565b5f61263082612605565b9050919050565b5f61264182612626565b9050919050565b61265181612637565b82525050565b5f60208201905061266a5f830184612648565b92915050565b5f5f60408385031215612686576126856120dc565b5b5f612693858286016122f3565b92505060206126a4858286016122f3565b9150509250929050565b7f4e487b71000000000000000000000000000000000000000000000000000000005f52602260045260245ffd5b5f60028204905060018216806126f257607f821691505b602082108103612705576127046126ae565b5b50919050565b5f60608201905061271e5f8301866122b5565b61272b60208301856123c0565b61273860408301846122b5565b949350505050565b7f53747265616d4e46543a2043616c6c6572206973206e6f742074686520636f725f8201527f6520636f6e747261637400000000000000000000000000000000000000000000602082015250565b5f61279a602a836121a1565b91506127a582612740565b604082019050919050565b5f6020820190508181035f8301526127c78161278e565b9050919050565b7f53747265616d4e46543a20636f726520616464726573732063616e6e6f7420625f8201527f65207a65726f0000000000000000000000000000000000000000000000000000602082015250565b5f6128286026836121a1565b9150612833826127ce565b604082019050919050565b5f6020820190508181035f8301526128558161281c565b9050919050565b5f8151905061286a816122dd565b92915050565b5f8151905061287e81612230565b92915050565b5f61288e826122a4565b9050919050565b61289e81612884565b81146128a8575f5ffd5b50565b5f815190506128b981612895565b92915050565b5f5f5f5f5f5f5f5f610100898b0312156128dc576128db6120dc565b5b5f6128e98b828c0161285c565b98505060206128fa8b828c0161285c565b975050604061290b8b828c01612870565b965050606061291c8b828c016128ab565b955050608061292d8b828c01612870565b94505060a061293e8b828c01612870565b93505060c061294f8b828c01612870565b92505060e06129608b828c01612870565b9150509295985092959890939650565b5f60208284031215612985576129846120dc565b5b5f61299284828501612870565b91505092915050565b5f81905092915050565b7f4368726f6e6f466c6f772053747265616d2023000000000000000000000000005f82015250565b5f6129d960138361299b565b91506129e4826129a5565b601382019050919050565b5f6129f982612197565b612a03818561299b565b9350612a138185602086016121b1565b80840191505092915050565b5f612a29826129cd565b9150612a3582846129ef565b915081905092915050565b7f7b2274726169745f74797065223a20225061796572222c202276616c7565223a5f8201527f2022000000000000000000000000000000000000000000000000000000000000602082015250565b5f612a9a60228361299b565b9150612aa582612a40565b602282019050919050565b7f227d2c00000000000000000000000000000000000000000000000000000000005f82015250565b5f612ae460038361299b565b9150612aef82612ab0565b600382019050919050565b7f7b2274726169745f74797065223a2022526563697069656e74222c202276616c5f8201527f7565223a20220000000000000000000000000000000000000000000000000000602082015250565b5f612b5460268361299b565b9150612b5f82612afa565b602682019050919050565b7f7b2274726169745f74797065223a2022546f6b656e2041646472657373222c205f8201527f2276616c7565223a202200000000000000000000000000000000000000000000602082015250565b5f612bc4602a8361299b565b9150612bcf82612b6a565b602a82019050919050565b7f7b2274726169745f74797065223a2022546f74616c204465706f736974222c205f8201527f2276616c7565223a200000000000000000000000000000000000000000000000602082015250565b5f612c3460298361299b565b9150612c3f82612bda565b602982019050919050565b7f7d2c0000000000000000000000000000000000000000000000000000000000005f82015250565b5f612c7e60028361299b565b9150612c8982612c4a565b600282019050919050565b7f7b2274726169745f74797065223a202252656d61696e696e672042616c616e635f8201527f65222c202276616c7565223a2000000000000000000000000000000000000000602082015250565b5f612cee602d8361299b565b9150612cf982612c94565b602d82019050919050565b7f7b2274726169745f74797065223a202257697468647261776e20416d6f756e745f8201527f222c202276616c7565223a200000000000000000000000000000000000000000602082015250565b5f612d5e602c8361299b565b9150612d6982612d04565b602c82019050919050565b7f7b2274726169745f74797065223a202253747265616d61626c65204e6f77222c5f8201527f202276616c7565223a2000000000000000000000000000000000000000000000602082015250565b5f612dce602a8361299b565b9150612dd982612d74565b602a82019050919050565b7f7b2274726169745f74797065223a202253746172742054696d65222c202276615f8201527f6c7565223a200000000000000000000000000000000000000000000000000000602082015250565b5f612e3e60268361299b565b9150612e4982612de4565b602682019050919050565b7f2c2022646973706c61795f74797065223a202264617465227d2c0000000000005f82015250565b5f612e88601a8361299b565b9150612e9382612e54565b601a82019050919050565b7f7b2274726169745f74797065223a2022456e642054696d65222c202276616c755f8201527f65223a2000000000000000000000000000000000000000000000000000000000602082015250565b5f612ef860248361299b565b9150612f0382612e9e565b602482019050919050565b7f2c2022646973706c61795f74797065223a202264617465227d000000000000005f82015250565b5f612f4260198361299b565b9150612f4d82612f0e565b601982019050919050565b5f612f6282612a8e565b9150612f6e828c6129ef565b9150612f7982612ad8565b9150612f8482612b48565b9150612f90828b6129ef565b9150612f9b82612ad8565b9150612fa682612bb8565b9150612fb2828a6129ef565b9150612fbd82612ad8565b9150612fc882612c28565b9150612fd482896129ef565b9150612fdf82612c72565b9150612fea82612ce2565b9150612ff682886129ef565b915061300182612c72565b915061300c82612d52565b915061301882876129ef565b915061302382612c72565b915061302e82612dc2565b915061303a82866129ef565b915061304582612c72565b915061305082612e32565b915061305c82856129ef565b915061306782612e7c565b915061307282612eec565b915061307e82846129ef565b915061308982612f36565b91508190509a9950505050505050505050565b7f7b226e616d65223a2022000000000000000000000000000000000000000000005f82015250565b5f6130d0600a8361299b565b91506130db8261309c565b600a82019050919050565b7f222c0000000000000000000000000000000000000000000000000000000000005f82015250565b5f61311a60028361299b565b9150613125826130e6565b600282019050919050565b7f226465736372697074696f6e223a2022000000000000000000000000000000005f82015250565b5f61316460108361299b565b915061316f82613130565b601082019050919050565b7f2261747472696275746573223a205b00000000000000000000000000000000005f82015250565b5f6131ae600f8361299b565b91506131b98261317a565b600f82019050919050565b7f5d7d0000000000000000000000000000000000000000000000000000000000005f82015250565b5f6131f860028361299b565b9150613203826131c4565b600282019050919050565b5f613218826130c4565b915061322482866129ef565b915061322f8261310e565b915061323a82613158565b915061324682856129ef565b91506132518261310e565b915061325c826131a2565b915061326882846129ef565b9150613273826131ec565b9150819050949350505050565b7f646174613a6170706c69636174696f6e2f6a736f6e3b6261736536342c0000005f82015250565b5f6132b4601d8361299b565b91506132bf82613280565b601d82019050919050565b5f6132d4826132a8565b91506132e082846129ef565b915081905092915050565b5f81519050919050565b5f82825260208201905092915050565b5f61330f826132eb565b61331981856132f5565b93506133298185602086016121b1565b613332816121bf565b840191505092915050565b5f6080820190506133505f8301876122b5565b61335d60208301866122b5565b61336a60408301856123c0565b818103606083015261337c8184613305565b905095945050505050565b5f815190506133958161210f565b92915050565b5f602082840312156133b0576133af6120dc565b5b5f6133bd84828501613387565b91505092915050565b7f4e487b71000000000000000000000000000000000000000000000000000000005f52601260045260245ffd5b7f4e487b71000000000000000000000000000000000000000000000000000000005f52601160045260245ffd5b5f61342a82612227565b915061343583612227565b925082820261344381612227565b9150828204841483151761345a576134596133f3565b5b5092915050565b5f61346b82612227565b915061347683612227565b925082820190508082111561348e5761348d6133f3565b5b92915050565b7f4e487b71000000000000000000000000000000000000000000000000000000005f52603260045260245ffd5b5f6134cb82612227565b91505f82036134dd576134dc6133f3565b5b600182039050919050565b5f6040820190506134fb5f8301856123c0565b61350860208301846123c0565b9392505050565b5f61351982612227565b915061352483612227565b925082613534576135336133c6565b5b828204905092915050565b5f6040820190506135525f8301856122b5565b61355f60208301846123c0565b939250505056fe4142434445464748494a4b4c4d4e4f505152535455565758595a6162636465666768696a6b6c6d6e6f707172737475767778797a303132333435363738392b2f41207265616c2d74696d652c206f6e2d636861696e2073747265616d206f662076616c75652e2054686973204e465420726570726573656e7473206f776e657273686970206f6620746865206675747572652063617368666c6f772ea26469706673582212207a96803c2ea5a644e233c2d05f251b7e3103980fae76e5324935acbc96ba9a0164736f6c634300081c0033",
  "linkReferences": {},
  "deployedLinkReferences": {},
  "immutableReferences": {},
  "inputSourceName": "project/contracts/StreamNFT.sol",
  "buildInfoId": "solc-0_8_28-45e9fe6c90051f8737bc0baff67583544b676a40"
}