{
  "_format": "hh3-artifact-1",
  "contractName": "ChronoFlowMarketplace",
  "sourceName": "contracts/ChronoFlowMarketplace.sol",
  "abi": [
    {
      "inputs": [
        {
          "internalType": "address",
          "name": "_streamNFTAddress",
          "type": "address"
        }
      ],
      "stateMutability": "nonpayable",
      "type": "constructor"
    },
    {
      "inputs": [],
      "name": "ReentrancyGuardReentrantCall",
      "type": "error"
    },
    {
      "anonymous": false,
      "inputs": [
        {
          "indexed": true,
          "internalType": "uint256",
          "name": "tokenId",
          "type": "uint256"
        },
        {
          "indexed": true,
          "internalType": "address",
          "name": "seller",
          "type": "address"
        },
        {
          "indexed": false,
          "internalType": "uint256",
          "name": "price",
          "type": "uint256"
        }
      ],
      "name": "Listed",
      "type": "event"
    },
    {
      "anonymous": false,
      "inputs": [
        {
          "indexed": true,
          "internalType": "uint256",
          "name": "tokenId",
          "type": "uint256"
        },
        {
          "indexed": true,
          "internalType": "address",
          "name": "seller",
          "type": "address"
        },
        {
          "indexed": true,
          "internalType": "address",
          "name": "buyer",
          "type": "address"
        },
        {
          "indexed": false,
          "internalType": "uint256",
          "name": "price",
          "type": "uint256"
        }
      ],
      "name": "Sold",
      "type": "event"
    },
    {
      "anonymous": false,
      "inputs": [
        {
          "indexed": true,
          "internalType": "uint256",
          "name": "tokenId",
          "type": "uint256"
        },
        {
          "indexed": true,
          "internalType": "address",
          "name": "seller",
          "type": "address"
        }
      ],
      "name": "Unlisted",
      "type": "event"
    },
    {
      "inputs": [
        {
          "internalType": "uint256",
          "name": "tokenId",
          "type": "uint256"
        }
      ],
      "name": "buyNFT",
      "outputs": [],
      "stateMutability": "payable",
      "type": "function"
    },
    {
      "inputs": [
        {
          "internalType": "uint256",
          "name": "tokenId",
          "type": "uint256"
        },
        {
          "internalType": "uint256",
          "name": "price",
          "type": "uint256"
        }
      ],
      "name": "listNFT",
      "outputs": [],
      "stateMutability": "nonpayable",
      "type": "function"
    },
    {
      "inputs": [
        {
          "internalType": "uint256",
          "name": "",
          "type": "uint256"
        }
      ],
      "name": "listings",
      "outputs": [
        {
          "internalType": "address",
          "name": "seller",
          "type": "address"
        },
        {
          "internalType": "uint256",
          "name": "price",
          "type": "uint256"
        }
      ],
      "stateMutability": "view",
      "type": "function"
    },
    {
      "inputs": [],
      "name": "streamNFT",
      "outputs": [
        {
          "internalType": "contract IERC721",
          "name": "",
          "type": "address"
        }
      ],
      "stateMutability": "view",
      "type": "function"
    },
    {
      "inputs": [
        {
          "internalType": "uint256",
          "name": "tokenId",
          "type": "uint256"
        }
      ],
      "name": "unlistNFT",
      "outputs": [],
      "stateMutability": "nonpayable",
      "type": "function"
    }
  ],
  "bytecode": "0x608060405234801561000f575f5ffd5b50604051611089380380611089833981810160405281019061003191906100dc565b60015f819055508060015f6101000a81548173ffffffffffffffffffffffffffffffffffffffff021916908373ffffffffffffffffffffffffffffffffffffffff16021790555050610107565b5f5ffd5b5f73ffffffffffffffffffffffffffffffffffffffff82169050919050565b5f6100ab82610082565b9050919050565b6100bb816100a1565b81146100c5575f5ffd5b50565b5f815190506100d6816100b2565b92915050565b5f602082840312156100f1576100f061007e565b5b5f6100fe848285016100c8565b91505092915050565b610f75806101145f395ff3fe608060405260043610610049575f3560e01c806351ed82881461004d578063862347bd1461006957806394383f1414610093578063961f0944146100bb578063de74e57b146100e3575b5f5ffd5b61006760048036038101906100629190610917565b610120565b005b348015610074575f5ffd5b5061007d6103d5565b60405161008a91906109bc565b60405180910390f35b34801561009e575f5ffd5b506100b960048036038101906100b491906109d5565b6103fa565b005b3480156100c6575f5ffd5b506100e160048036038101906100dc9190610917565b610728565b005b3480156100ee575f5ffd5b5061010960048036038101906101049190610917565b610854565b604051610117929190610a42565b60405180910390f35b610128610893565b5f60025f8381526020019081526020015f2090505f816001015411610182576040517f08c379a000000000000000000000000000000000000000000000000000000000815260040161017990610ae9565b60405180910390fd5b806001015434146101c8576040517f08c379a00000000000000000000000000000000000000000000000000000000081526004016101bf90610b77565b60405180910390fd5b5f815f015f9054906101000a900473ffffffffffffffffffffffffffffffffffffffff16905060025f8481526020019081526020015f205f5f82015f6101000a81549073ffffffffffffffffffffffffffffffffffffffff0219169055600182015f9055505060015f9054906101000a900473ffffffffffffffffffffffffffffffffffffffff1673ffffffffffffffffffffffffffffffffffffffff166342842e0e8233866040518463ffffffff1660e01b815260040161028c93929190610b95565b5f604051808303815f87803b1580156102a3575f5ffd5b505af11580156102b5573d5f5f3e3d5ffd5b505050505f8173ffffffffffffffffffffffffffffffffffffffff16346040516102de90610bf7565b5f6040518083038185875af1925050503d805f8114610318576040519150601f19603f3d011682016040523d82523d5f602084013e61031d565b606091505b5050905080610361576040517f08c379a000000000000000000000000000000000000000000000000000000000815260040161035890610c7b565b60405180910390fd5b3373ffffffffffffffffffffffffffffffffffffffff168273ffffffffffffffffffffffffffffffffffffffff16857f23f50d55776d8003622a982ade45a6c7f083116c8dbbcd980f59942f440badb1346040516103bf9190610c99565b60405180910390a45050506103d26108d7565b50565b60015f9054906101000a900473ffffffffffffffffffffffffffffffffffffffff1681565b3373ffffffffffffffffffffffffffffffffffffffff1660015f9054906101000a900473ffffffffffffffffffffffffffffffffffffffff1673ffffffffffffffffffffffffffffffffffffffff16636352211e846040518263ffffffff1660e01b815260040161046b9190610c99565b602060405180830381865afa158015610486573d5f5f3e3d5ffd5b505050506040513d601f19601f820116820180604052508101906104aa9190610cdc565b73ffffffffffffffffffffffffffffffffffffffff1614610500576040517f08c379a00000000000000000000000000000000000000000000000000000000081526004016104f790610d77565b60405180910390fd5b5f8111610542576040517f08c379a000000000000000000000000000000000000000000000000000000000815260040161053990610e05565b60405180910390fd5b3073ffffffffffffffffffffffffffffffffffffffff1660015f9054906101000a900473ffffffffffffffffffffffffffffffffffffffff1673ffffffffffffffffffffffffffffffffffffffff1663081812fc846040518263ffffffff1660e01b81526004016105b39190610c99565b602060405180830381865afa1580156105ce573d5f5f3e3d5ffd5b505050506040513d601f19601f820116820180604052508101906105f29190610cdc565b73ffffffffffffffffffffffffffffffffffffffff1614610648576040517f08c379a000000000000000000000000000000000000000000000000000000000815260040161063f90610e93565b60405180910390fd5b60405180604001604052803373ffffffffffffffffffffffffffffffffffffffff1681526020018281525060025f8481526020019081526020015f205f820151815f015f6101000a81548173ffffffffffffffffffffffffffffffffffffffff021916908373ffffffffffffffffffffffffffffffffffffffff160217905550602082015181600101559050503373ffffffffffffffffffffffffffffffffffffffff16827f50955776c5778c3b7d968d86d8c51fb6b29a7a74c20866b533268e209fc083438360405161071c9190610c99565b60405180910390a35050565b5f60025f8381526020019081526020015f2090503373ffffffffffffffffffffffffffffffffffffffff16815f015f9054906101000a900473ffffffffffffffffffffffffffffffffffffffff1673ffffffffffffffffffffffffffffffffffffffff16146107cc576040517f08c379a00000000000000000000000000000000000000000000000000000000081526004016107c390610f21565b60405180910390fd5b60025f8381526020019081526020015f205f5f82015f6101000a81549073ffffffffffffffffffffffffffffffffffffffff0219169055600182015f905550503373ffffffffffffffffffffffffffffffffffffffff16827f398bd90ce129393b9155d48dccffb325e671f45c4250de457462a019268ff1f060405160405180910390a35050565b6002602052805f5260405f205f91509050805f015f9054906101000a900473ffffffffffffffffffffffffffffffffffffffff16908060010154905082565b60025f54036108ce576040517f3ee5aeb500000000000000000000000000000000000000000000000000000000815260040160405180910390fd5b60025f81905550565b60015f81905550565b5f5ffd5b5f819050919050565b6108f6816108e4565b8114610900575f5ffd5b50565b5f81359050610911816108ed565b92915050565b5f6020828403121561092c5761092b6108e0565b5b5f61093984828501610903565b91505092915050565b5f73ffffffffffffffffffffffffffffffffffffffff82169050919050565b5f819050919050565b5f61098461097f61097a84610942565b610961565b610942565b9050919050565b5f6109958261096a565b9050919050565b5f6109a68261098b565b9050919050565b6109b68161099c565b82525050565b5f6020820190506109cf5f8301846109ad565b92915050565b5f5f604083850312156109eb576109ea6108e0565b5b5f6109f885828601610903565b9250506020610a0985828601610903565b9150509250929050565b5f610a1d82610942565b9050919050565b610a2d81610a13565b82525050565b610a3c816108e4565b82525050565b5f604082019050610a555f830185610a24565b610a626020830184610a33565b9392505050565b5f82825260208201905092915050565b7f4d61726b6574706c6163653a204e4654206e6f74206c697374656420666f72205f8201527f73616c6500000000000000000000000000000000000000000000000000000000602082015250565b5f610ad3602483610a69565b9150610ade82610a79565b604082019050919050565b5f6020820190508181035f830152610b0081610ac7565b9050919050565b7f4d61726b6574706c6163653a20496e636f727265637420616d6f756e74206f665f8201527f2066756e64732073656e74000000000000000000000000000000000000000000602082015250565b5f610b61602b83610a69565b9150610b6c82610b07565b604082019050919050565b5f6020820190508181035f830152610b8e81610b55565b9050919050565b5f606082019050610ba85f830186610a24565b610bb56020830185610a24565b610bc26040830184610a33565b949350505050565b5f81905092915050565b50565b5f610be25f83610bca565b9150610bed82610bd4565b5f82019050919050565b5f610c0182610bd7565b9150819050919050565b7f4d61726b6574706c6163653a205061796d656e7420746f2073656c6c657220665f8201527f61696c6564000000000000000000000000000000000000000000000000000000602082015250565b5f610c65602583610a69565b9150610c7082610c0b565b604082019050919050565b5f6020820190508181035f830152610c9281610c59565b9050919050565b5f602082019050610cac5f830184610a33565b92915050565b610cbb81610a13565b8114610cc5575f5ffd5b50565b5f81519050610cd681610cb2565b92915050565b5f60208284031215610cf157610cf06108e0565b5b5f610cfe84828501610cc8565b91505092915050565b7f4d61726b6574706c6163653a20596f7520617265206e6f7420746865206f776e5f8201527f6572000000000000000000000000000000000000000000000000000000000000602082015250565b5f610d61602283610a69565b9150610d6c82610d07565b604082019050919050565b5f6020820190508181035f830152610d8e81610d55565b9050919050565b7f4d61726b6574706c6163653a205072696365206d7573742062652067726561745f8201527f6572207468616e207a65726f0000000000000000000000000000000000000000602082015250565b5f610def602c83610a69565b9150610dfa82610d95565b604082019050919050565b5f6020820190508181035f830152610e1c81610de3565b9050919050565b7f4d61726b6574706c6163653a20436f6e7472616374206e6f7420617070726f765f8201527f656420746f206d616e6167652074686973204e46540000000000000000000000602082015250565b5f610e7d603583610a69565b9150610e8882610e23565b604082019050919050565b5f6020820190508181035f830152610eaa81610e71565b9050919050565b7f4d61726b6574706c6163653a20596f7520617265206e6f74207468652073656c5f8201527f6c65720000000000000000000000000000000000000000000000000000000000602082015250565b5f610f0b602383610a69565b9150610f1682610eb1565b604082019050919050565b5f6020820190508181035f830152610f3881610eff565b905091905056fea26469706673582212205a0c6c4d5e13261400d60daa28d67191f9e1e3cb7a58e68ca38465196879a16164736f6c634300081c0033",
  "linkReferences": {},
  "deployedLinkReferences": {},
  "immutableReferences": {},
  "inputSourceName": "project/contracts/ChronoFlowMarketplace.sol",
  "buildInfoId": "solc-0_8_28-54c55cc1a62288f7071443583144f9360aaaddf5"
}