{
  "_format": "hh3-artifact-1",
  "contractName": "ChronoFlowCore",
  "sourceName": "contracts/ChronoFlowCore.sol",
  "abi": [
    {
      "inputs": [
        {
          "internalType": "address",
          "name": "_streamNFTAddress",
          "type": "address"
        }
      ],
      "stateMutability": "nonpayable",
      "type": "constructor"
    },
    {
      "inputs": [],
      "name": "ReentrancyGuardReentrantCall",
      "type": "error"
    },
    {
      "anonymous": false,
      "inputs": [
        {
          "indexed": true,
          "internalType": "uint256",
          "name": "streamId",
          "type": "uint256"
        },
        {
          "indexed": true,
          "internalType": "address",
          "name": "payer",
          "type": "address"
        },
        {
          "indexed": false,
          "internalType": "uint256",
          "name": "payerAmount",
          "type": "uint256"
        },
        {
          "indexed": false,
          "internalType": "uint256",
          "name": "recipientAmount",
          "type": "uint256"
        }
      ],
      "name": "StreamCancelled",
      "type": "event"
    },
    {
      "anonymous": false,
      "inputs": [
        {
          "indexed": true,
          "internalType": "uint256",
          "name": "streamId",
          "type": "uint256"
        },
        {
          "indexed": true,
          "internalType": "address",
          "name": "payer",
          "type": "address"
        },
        {
          "indexed": true,
          "internalType": "address",
          "name": "recipient",
          "type": "address"
        },
        {
          "indexed": false,
          "internalType": "uint256",
          "name": "deposit",
          "type": "uint256"
        },
        {
          "indexed": false,
          "internalType": "address",
          "name": "tokenAddress",
          "type": "address"
        },
        {
          "indexed": false,
          "internalType": "uint256",
          "name": "startTime",
          "type": "uint256"
        },
        {
          "indexed": false,
          "internalType": "uint256",
          "name": "stopTime",
          "type": "uint256"
        }
      ],
      "name": "StreamCreated",
      "type": "event"
    },
    {
      "anonymous": false,
      "inputs": [
        {
          "indexed": true,
          "internalType": "uint256",
          "name": "streamId",
          "type": "uint256"
        },
        {
          "indexed": true,
          "internalType": "address",
          "name": "withdrawer",
          "type": "address"
        },
        {
          "indexed": false,
          "internalType": "uint256",
          "name": "amount",
          "type": "uint256"
        }
      ],
      "name": "Withdrawn",
      "type": "event"
    },
    {
      "inputs": [
        {
          "internalType": "address",
          "name": "_recipient",
          "type": "address"
        },
        {
          "internalType": "uint256",
          "name": "_deposit",
          "type": "uint256"
        },
        {
          "internalType": "address",
          "name": "_tokenAddress",
          "type": "address"
        },
        {
          "internalType": "uint256",
          "name": "_startTime",
          "type": "uint256"
        },
        {
          "internalType": "uint256",
          "name": "_stopTime",
          "type": "uint256"
        }
      ],
      "name": "createStream",
      "outputs": [
        {
          "internalType": "uint256",
          "name": "",
          "type": "uint256"
        }
      ],
      "stateMutability": "nonpayable",
      "type": "function"
    },
    {
      "inputs": [],
      "name": "nextStreamId",
      "outputs": [
        {
          "internalType": "uint256",
          "name": "",
          "type": "uint256"
        }
      ],
      "stateMutability": "view",
      "type": "function"
    },
    {
      "inputs": [],
      "name": "streamNFT",
      "outputs": [
        {
          "internalType": "contract StreamNFT",
          "name": "",
          "type": "address"
        }
      ],
      "stateMutability": "view",
      "type": "function"
    },
    {
      "inputs": [
        {
          "internalType": "uint256",
          "name": "streamId",
          "type": "uint256"
        }
      ],
      "name": "streamableBalanceOf",
      "outputs": [
        {
          "internalType": "uint256",
          "name": "",
          "type": "uint256"
        }
      ],
      "stateMutability": "view",
      "type": "function"
    },
    {
      "inputs": [
        {
          "internalType": "uint256",
          "name": "",
          "type": "uint256"
        }
      ],
      "name": "streams",
      "outputs": [
        {
          "internalType": "address",
          "name": "payer",
          "type": "address"
        },
        {
          "internalType": "address",
          "name": "recipient",
          "type": "address"
        },
        {
          "internalType": "uint256",
          "name": "deposit",
          "type": "uint256"
        },
        {
          "internalType": "contract IERC20",
          "name": "token",
          "type": "address"
        },
        {
          "internalType": "uint256",
          "name": "startTime",
          "type": "uint256"
        },
        {
          "internalType": "uint256",
          "name": "stopTime",
          "type": "uint256"
        },
        {
          "internalType": "uint256",
          "name": "remainingBalance",
          "type": "uint256"
        },
        {
          "internalType": "uint256",
          "name": "withdrawnAmount",
          "type": "uint256"
        }
      ],
      "stateMutability": "view",
      "type": "function"
    },
    {
      "inputs": [
        {
          "internalType": "uint256",
          "name": "streamId",
          "type": "uint256"
        },
        {
          "internalType": "uint256",
          "name": "amount",
          "type": "uint256"
        }
      ],
      "name": "withdrawFromStream",
      "outputs": [],
      "stateMutability": "nonpayable",
      "type": "function"
    }
  ],
  "bytecode": "0x608060405234801561000f575f5ffd5b50604051611803380380611803833981810160405281019061003191906100e4565b60015f819055508060015f6101000a81548173ffffffffffffffffffffffffffffffffffffffff021916908373ffffffffffffffffffffffffffffffffffffffff16021790555060016002819055505061010f565b5f5ffd5b5f73ffffffffffffffffffffffffffffffffffffffff82169050919050565b5f6100b38261008a565b9050919050565b6100c3816100a9565b81146100cd575f5ffd5b50565b5f815190506100de816100ba565b92915050565b5f602082840312156100f9576100f8610086565b5b5f610106848285016100d0565b91505092915050565b6116e78061011c5f395ff3fe608060405234801561000f575f5ffd5b5060043610610060575f3560e01c80631e99d5691461006457806364d60d91146100825780637a9b2c6c146100b9578063862347bd146100d5578063cc1b4bf6146100f3578063f2dedd2214610123575b5f5ffd5b61006c610153565b6040516100799190610bbf565b60405180910390f35b61009c60048036038101906100979190610c06565b610159565b6040516100b0989796959493929190610ccb565b60405180910390f35b6100d360048036038101906100ce9190610d47565b6101fa565b005b6100dd61051b565b6040516100ea9190610da5565b60405180910390f35b61010d60048036038101906101089190610de8565b610540565b60405161011a9190610bbf565b60405180910390f35b61013d60048036038101906101389190610c06565b610a62565b60405161014a9190610bbf565b60405180910390f35b60025481565b6003602052805f5260405f205f91509050805f015f9054906101000a900473ffffffffffffffffffffffffffffffffffffffff1690806001015f9054906101000a900473ffffffffffffffffffffffffffffffffffffffff1690806002015490806003015f9054906101000a900473ffffffffffffffffffffffffffffffffffffffff16908060040154908060050154908060060154908060070154905088565b610202610b3e565b3373ffffffffffffffffffffffffffffffffffffffff1660015f9054906101000a900473ffffffffffffffffffffffffffffffffffffffff1673ffffffffffffffffffffffffffffffffffffffff16636352211e846040518263ffffffff1660e01b81526004016102739190610bbf565b602060405180830381865afa15801561028e573d5f5f3e3d5ffd5b505050506040513d601f19601f820116820180604052508101906102b29190610e73565b73ffffffffffffffffffffffffffffffffffffffff1614610308576040517f08c379a00000000000000000000000000000000000000000000000000000000081526004016102ff90610f1e565b60405180910390fd5b5f811161034a576040517f08c379a000000000000000000000000000000000000000000000000000000000815260040161034190610fac565b60405180910390fd5b5f61035483610a62565b905081811015610399576040517f08c379a00000000000000000000000000000000000000000000000000000000081526004016103909061103a565b60405180910390fd5b5f60035f8581526020019081526020015f20905082816007015f8282546103c09190611085565b9250508190555082816006015f8282546103da91906110b8565b92505081905550806003015f9054906101000a900473ffffffffffffffffffffffffffffffffffffffff1673ffffffffffffffffffffffffffffffffffffffff1663a9059cbb33856040518363ffffffff1660e01b815260040161043f9291906110eb565b6020604051808303815f875af115801561045b573d5f5f3e3d5ffd5b505050506040513d601f19601f8201168201806040525081019061047f9190611147565b6104be576040517f08c379a00000000000000000000000000000000000000000000000000000000081526004016104b5906111e2565b60405180910390fd5b3373ffffffffffffffffffffffffffffffffffffffff16847fcf7d23a3cbe4e8b36ff82fd1b05b1b17373dc7804b4ebbd6e2356716ef202372856040516105059190610bbf565b60405180910390a35050610517610b82565b5050565b60015f9054906101000a900473ffffffffffffffffffffffffffffffffffffffff1681565b5f610549610b3e565b5f73ffffffffffffffffffffffffffffffffffffffff168673ffffffffffffffffffffffffffffffffffffffff16036105b7576040517f08c379a00000000000000000000000000000000000000000000000000000000081526004016105ae90611270565b60405180910390fd5b5f85116105f9576040517f08c379a00000000000000000000000000000000000000000000000000000000081526004016105f0906112fe565b60405180910390fd5b5f73ffffffffffffffffffffffffffffffffffffffff168473ffffffffffffffffffffffffffffffffffffffff1603610667576040517f08c379a000000000000000000000000000000000000000000000000000000000815260040161065e9061138c565b60405180910390fd5b428310156106aa576040517f08c379a00000000000000000000000000000000000000000000000000000000081526004016106a19061141a565b60405180910390fd5b8282116106ec576040517f08c379a00000000000000000000000000000000000000000000000000000000081526004016106e3906114a8565b60405180910390fd5b5f60025f8154809291906106ff906114c6565b9190505590505f8590508073ffffffffffffffffffffffffffffffffffffffff166323b872dd33308a6040518463ffffffff1660e01b81526004016107469392919061150d565b6020604051808303815f875af1158015610762573d5f5f3e3d5ffd5b505050506040513d601f19601f820116820180604052508101906107869190611147565b6107c5576040517f08c379a00000000000000000000000000000000000000000000000000000000081526004016107bc906111e2565b60405180910390fd5b6040518061010001604052803373ffffffffffffffffffffffffffffffffffffffff1681526020018973ffffffffffffffffffffffffffffffffffffffff1681526020018881526020018273ffffffffffffffffffffffffffffffffffffffff1681526020018681526020018581526020018881526020015f81525060035f8481526020019081526020015f205f820151815f015f6101000a81548173ffffffffffffffffffffffffffffffffffffffff021916908373ffffffffffffffffffffffffffffffffffffffff1602179055506020820151816001015f6101000a81548173ffffffffffffffffffffffffffffffffffffffff021916908373ffffffffffffffffffffffffffffffffffffffff160217905550604082015181600201556060820151816003015f6101000a81548173ffffffffffffffffffffffffffffffffffffffff021916908373ffffffffffffffffffffffffffffffffffffffff1602179055506080820151816004015560a0820151816005015560c0820151816006015560e0820151816007015590505060015f9054906101000a900473ffffffffffffffffffffffffffffffffffffffff1673ffffffffffffffffffffffffffffffffffffffff166340c10f1989846040518363ffffffff1660e01b81526004016109b39291906110eb565b5f604051808303815f87803b1580156109ca575f5ffd5b505af11580156109dc573d5f5f3e3d5ffd5b505050508773ffffffffffffffffffffffffffffffffffffffff163373ffffffffffffffffffffffffffffffffffffffff16837f245a10be3887203932eae379b52ee9c40f5f47fec1ddfc4646daa87e2fba10508a8a8a8a604051610a449493929190611542565b60405180910390a48192505050610a59610b82565b95945050505050565b5f5f60035f8481526020019081526020015f2090505f816004015403610abd576040517f08c379a0000000000000000000000000000000000000000000000000000000008152600401610ab4906115f5565b60405180910390fd5b8060040154421015610ad2575f915050610b39565b80600501544210610aea578060060154915050610b39565b5f816004015442610afb91906110b8565b90505f610b0783610b8b565b828460020154610b179190611613565b610b219190611681565b9050826007015481610b3391906110b8565b93505050505b919050565b60025f5403610b79576040517f3ee5aeb500000000000000000000000000000000000000000000000000000000815260040160405180910390fd5b60025f81905550565b60015f81905550565b5f81600401548260050154610ba091906110b8565b9050919050565b5f819050919050565b610bb981610ba7565b82525050565b5f602082019050610bd25f830184610bb0565b92915050565b5f5ffd5b610be581610ba7565b8114610bef575f5ffd5b50565b5f81359050610c0081610bdc565b92915050565b5f60208284031215610c1b57610c1a610bd8565b5b5f610c2884828501610bf2565b91505092915050565b5f73ffffffffffffffffffffffffffffffffffffffff82169050919050565b5f610c5a82610c31565b9050919050565b610c6a81610c50565b82525050565b5f819050919050565b5f610c93610c8e610c8984610c31565b610c70565b610c31565b9050919050565b5f610ca482610c79565b9050919050565b5f610cb582610c9a565b9050919050565b610cc581610cab565b82525050565b5f61010082019050610cdf5f83018b610c61565b610cec602083018a610c61565b610cf96040830189610bb0565b610d066060830188610cbc565b610d136080830187610bb0565b610d2060a0830186610bb0565b610d2d60c0830185610bb0565b610d3a60e0830184610bb0565b9998505050505050505050565b5f5f60408385031215610d5d57610d5c610bd8565b5b5f610d6a85828601610bf2565b9250506020610d7b85828601610bf2565b9150509250929050565b5f610d8f82610c9a565b9050919050565b610d9f81610d85565b82525050565b5f602082019050610db85f830184610d96565b92915050565b610dc781610c50565b8114610dd1575f5ffd5b50565b5f81359050610de281610dbe565b92915050565b5f5f5f5f5f60a08688031215610e0157610e00610bd8565b5b5f610e0e88828901610dd4565b9550506020610e1f88828901610bf2565b9450506040610e3088828901610dd4565b9350506060610e4188828901610bf2565b9250506080610e5288828901610bf2565b9150509295509295909350565b5f81519050610e6d81610dbe565b92915050565b5f60208284031215610e8857610e87610bd8565b5b5f610e9584828501610e5f565b91505092915050565b5f82825260208201905092915050565b7f4368726f6e6f466c6f773a2043616c6c6572206973206e6f7420746865206f775f8201527f6e6572206f66207468652073747265616d204e46540000000000000000000000602082015250565b5f610f08603583610e9e565b9150610f1382610eae565b604082019050919050565b5f6020820190508181035f830152610f3581610efc565b9050919050565b7f4368726f6e6f466c6f773a20416d6f756e74206d7573742062652067726561745f8201527f6572207468616e207a65726f0000000000000000000000000000000000000000602082015250565b5f610f96602c83610e9e565b9150610fa182610f3c565b604082019050919050565b5f6020820190508181035f830152610fc381610f8a565b9050919050565b7f4368726f6e6f466c6f773a204e6f7420656e6f7567682073747265616d61626c5f8201527f652062616c616e63650000000000000000000000000000000000000000000000602082015250565b5f611024602983610e9e565b915061102f82610fca565b604082019050919050565b5f6020820190508181035f83015261105181611018565b9050919050565b7f4e487b71000000000000000000000000000000000000000000000000000000005f52601160045260245ffd5b5f61108f82610ba7565b915061109a83610ba7565b92508282019050808211156110b2576110b1611058565b5b92915050565b5f6110c282610ba7565b91506110cd83610ba7565b92508282039050818111156110e5576110e4611058565b5b92915050565b5f6040820190506110fe5f830185610c61565b61110b6020830184610bb0565b9392505050565b5f8115159050919050565b61112681611112565b8114611130575f5ffd5b50565b5f815190506111418161111d565b92915050565b5f6020828403121561115c5761115b610bd8565b5b5f61116984828501611133565b91505092915050565b7f4368726f6e6f466c6f773a20546f6b656e207472616e73666572206661696c655f8201527f6400000000000000000000000000000000000000000000000000000000000000602082015250565b5f6111cc602183610e9e565b91506111d782611172565b604082019050919050565b5f6020820190508181035f8301526111f9816111c0565b9050919050565b7f4368726f6e6f466c6f773a20526563697069656e742063616e6e6f74206265205f8201527f7a65726f20616464726573730000000000000000000000000000000000000000602082015250565b5f61125a602c83610e9e565b915061126582611200565b604082019050919050565b5f6020820190508181035f8301526112878161124e565b9050919050565b7f4368726f6e6f466c6f773a204465706f736974206d75737420626520677265615f8201527f746572207468616e207a65726f00000000000000000000000000000000000000602082015250565b5f6112e8602d83610e9e565b91506112f38261128e565b604082019050919050565b5f6020820190508181035f830152611315816112dc565b9050919050565b7f4368726f6e6f466c6f773a20546f6b656e2063616e6e6f74206265207a65726f5f8201527f2061646472657373000000000000000000000000000000000000000000000000602082015250565b5f611376602883610e9e565b91506113818261131c565b604082019050919050565b5f6020820190508181035f8301526113a38161136a565b9050919050565b7f4368726f6e6f466c6f773a2053746172742074696d65206d75737420626520695f8201527f6e20746865206675747572650000000000000000000000000000000000000000602082015250565b5f611404602c83610e9e565b915061140f826113aa565b604082019050919050565b5f6020820190508181035f830152611431816113f8565b9050919050565b7f4368726f6e6f466c6f773a2053746f702074696d65206d7573742062652061665f8201527f7465722073746172742074696d65000000000000000000000000000000000000602082015250565b5f611492602e83610e9e565b915061149d82611438565b604082019050919050565b5f6020820190508181035f8301526114bf81611486565b9050919050565b5f6114d082610ba7565b91507fffffffffffffffffffffffffffffffffffffffffffffffffffffffffffffffff820361150257611501611058565b5b600182019050919050565b5f6060820190506115205f830186610c61565b61152d6020830185610c61565b61153a6040830184610bb0565b949350505050565b5f6080820190506115555f830187610bb0565b6115626020830186610c61565b61156f6040830185610bb0565b61157c6060830184610bb0565b95945050505050565b7f4368726f6e6f466c6f773a2053747265616d20646f6573206e6f7420657869735f8201527f7400000000000000000000000000000000000000000000000000000000000000602082015250565b5f6115df602183610e9e565b91506115ea82611585565b604082019050919050565b5f6020820190508181035f83015261160c816115d3565b9050919050565b5f61161d82610ba7565b915061162883610ba7565b925082820261163681610ba7565b9150828204841483151761164d5761164c611058565b5b5092915050565b7f4e487b71000000000000000000000000000000000000000000000000000000005f52601260045260245ffd5b5f61168b82610ba7565b915061169683610ba7565b9250826116a6576116a5611654565b5b82820490509291505056fea26469706673582212207ba75b70f98e85daec0ce4d5e72ccbf80e3259ec7b759fcd6bd6ab0f51a007b164736f6c634300081c0033",
  "linkReferences": {},
  "deployedLinkReferences": {},
  "immutableReferences": {},
  "inputSourceName": "project/contracts/ChronoFlowCore.sol",
  "buildInfoId": "solc-0_8_28-45e9fe6c90051f8737bc0baff67583544b676a40"
}